:020000040800F2
:10000000D0060020890100083912000831120008CA
:1000100035120008910200084D120008000000008F
:100020000000000000000000000000004112000875
:1000300095020008000000003D120008451200086B
:10004000A3010008A3010008A3010008A301000800
:10005000A3010008A3010008A3010008A3010008F0
:10006000A3010008A3010008A3010008A3010008E0
:10007000A3010008A3010008A3010008A3010008D0
:10008000A3010008A3010008A3010008A3010008C0
:10009000A3010008A3010008A3010008A3010008B0
:1000A000A3010008A3010008A3010008A3010008A0
:1000B000A3010008A3010008A3010008A301000890
:1000C000A3010008A3010008A3010008A301000880
:1000D000A3010008A3010008A3010008A301000870
:1000E000A3010008A3010008A301000800F002F822
:1000F00000F03AF80AA090E8000C82448344AAF188
:100100000107DA4501D100F02FF8AFF2090EBAE885
:100110000F0013F0010F18BFFB1A43F0010318473B
:100120006C1200008C120000103A24BF78C878C10D
:10013000FAD8520724BF30C830C144BF04680C60ED
:10014000704700000023002400250026103A28BF35
:1001500078C1FBD8520728BF30C148BF0B60704739
:100160001FB51FBD10B510BD00F058F81146FFF7C0
:10017000F7FF01F06DF800F076F803B4FFF7F2FF37
:1001800003BC00F07DF8000009488047094800479B
:10019000FEE7FEE7FEE7FEE7FEE7FEE7FEE7FEE737
:1001A000FEE7FEE704480549054A064B7047000094
:1001B00049120008ED000008D0000020D006002001
:1001C000D0020020D00200204FF0000200B51346FC
:1001D00094469646203922BFA0E80C50A0E80C5067
:1001E000B1F12001BFF4F7AF090728BFA0E80C5018
:1001F00048BF0CC05DF804EB890028BF40F8042B11
:1002000008BF704748BF20F8022B11F0804F18BF7D
:1002100000F8012B7047704770477047754600F033
:100220002BF8AE4605006946534620F00700854688
:1002300018B020B5FFF7B6FFBDE820404FF000062C
:100240004FF000074FF000084FF0000BAC46ACE851
:10025000C009ACE8C009ACE8C009ACE8C00921F0AD
:1002600007018D46704710B50446AFF30080204665
:10027000BDE81040FFF781BF004870471000002024
:1002800001491820ABBEFEE72600020070470000BF
:10029000FEE70000704700002DE9F04F82B00E68C5
:1002A000002E00F0038140F20C4C41F200424FF668
:1002B000FF7EC4F2010CC4F20102042700240123D2
:1002C000C1F2100E4FF0000A4FF00009904208BF33
:1002D0000327009745E000BF012704F00C030F221D
:1002E0009A402BEA020207FA03F34FEA9A051A43EF
:1002F00046F82520D1F804B040F20045C4F20105CB
:100300005FEACB322A6854BF22EA080242EA0802B6
:100310002A606A685FEA8B3354BF22EA080242EA25
:1003200008026A605FEACB23AA6854BF22EA080287
:1003300042EA08025FEA8B23AA60DCF800204FF053
:10034000010354BF22EA080242EA0802CCF8002066
:100350000E680AF1010A36FA0AF204F1040400F008
:10036000A58003FA0AF816EA080FF1D04E68764520
:1003700012DC122E56D8DFE806F0350B45495555EC
:1003800055555555555555555555554D510000BF69
:10039000D1F80C9046E000BF4FF6FF72C1F2210287
:1003A00096420FDC0022C1F2110296421AD00022BE
:1003B000C1F21202964215D00022C1F221029642E9
:1003C00010D02FE00022C1F2220296420AD0002271
:1003D000C1F23102964205D00022C1F232029642A9
:1003E00020D100BF8A684AB1012A14BFC0F8148026
:1003F000C0F810804FF0080914E000BF4FF0040966
:1004000010E000BFCA6802F108090BE04FF00009D4
:1004100008E000BFCA6802F1040903E0CA6802F1FB
:100420000C0900BF22460646BAF1080F24BF203A45
:10043000043637680F25954027EA050509FA02F2C8
:100440002A433260CA79D2067FF582AF41F218039F
:10045000C4F202031A6842F001021A601A6802F03C
:1004600001020192019A40F20042C4F20102A2F597
:100470007E762AF0030256F802B040F60002C4F27B
:100480000102904210D040F60042C4F201029042B4
:100490003FF422AF41F20002C4F20102009F9042F9
:1004A00008BF022719E700BF002716E702B0BDE822
:1004B000F08F0000002A08BF0904016170470000A6
:1004C00040F2C800C2F200000068704770B5B8B3CF
:1004D000044690F83D0028B9002084F83C002046EE
:1004E00000F0ECFA242084F83D002068016821F037
:1004F00001010160016841F400410160016821F4DB
:100500000041016000F090FC48F28041C0F21E0101
:1005100040F60013D4F804E088424FF00001C0F226
:100520003D0348F2A16C4FF0000238BF0121984210
:10053000C0F2010C38BF0122E64538BF0A460AB1B5
:10054000012070BD4DF68361C4F21B31A0FB011286
:100550002168950C4B684FF4967623F03F0343EAED
:100560009243754344F6D3564B60C1F262060B6A60
:10057000A5FB0656B50923F03F03E64538BF950CA9
:100580006A1C1A430A62CA6948F2A0664CF6FF73F5
:10059000C0F20106B64522EA03020BD801384FEA41
:1005A0004E03B0FBF3F001306FF31F30042898BF07
:1005B00004201EE0A368013863B119230EFB03F386
:1005C000B0FBF3F001306FF31F3078B100F58040DD
:1005D00008E000BF0EEB4E03B0FBF3F001306FF309
:1005E0001F3028B100F5004003E000BF012000E00B
:1005F00001201043C8610868D4E9072320F0C00037
:10060000104318430860886848F2FF3204F10C0672
:1006100090434CCE18431043A5698860C86820F009
:10062000FF0030432843C860086840F001000860BC
:1006300000202021206484F83D10206384F83E00CF
:1006400070BD00002DE9F04381B01F461646884674
:100650000446FFF735FF94F83D10202920D10546C8
:1006600020688169890717D5FFF72AFF401B1928E1
:10067000F6D900202021206384F83D1084F83E0044
:10068000216C022641F02001216484F83C003046B0
:1006900001B0BDE8F08300BF94F83C10012905D1FA
:1006A0000226304601B0BDE8F08300BF012184F886
:1006B0003C100168C90703D1016841F001010160E4
:1006C000016821F400610160212184F83D101021AE
:1006D00084F83E100021216466626785618D218562
:1006E0000021CFF6FF71E162E16A11F5803F18BF8A
:1006F000012919D1016841F4807101604169DDF877
:100700002090C90723D119F1010116D0B9F1000FCA
:1007100046D000BFFFF7D4FE401B484542D82068B2
:100720004169C907F6D012E00829E3D0216B1229EC
:10073000E0D0E3E74169C90709D14169C90706D19A
:100740004169C90704BF41695FEAC171F2D02169FB
:10075000B1F5804F02D1FE2161E000BF062101EA20
:10076000D811F03101614169090757D4416919F184
:10077000010201F480612FD0002946D1B9F1000FA8
:1007800000F04281FFF79CFE401B484500F23E818D
:1007900020684169090741D441694905F2D534E02F
:1007A000FFF78EFE00202021206384F83D1084F89E
:1007B0003E00216C012641F020012164216884F86B
:1007C0003C000868C00544BF4FF400702064304608
:1007D00001B0BDE8F08300BFB9B9416909071DD474
:1007E0004169490511D44169090717D4416949058F
:1007F0000BD44169090711D44169490505D4416900
:1008000009070BD441694905E7D5016841F4007136
:1008100001606FF4806141610420F8E0FF2101EA8A
:1008200008010161416989073AD4416919F101025E
:1008300001F4806112D051BBB9F1000F00F0E080EB
:10084000FFF73EFE401B484500F2DC80206841690E
:10085000890725D441694905F2D518E0B9B941693C
:1008600089071DD44169490511D44169890717D405
:10087000416949050BD44169890711D4416949058A
:1008800005D4416989070BD441694905E7D5016859
:1008900041F4007101606FF4806141610420B6E0B1
:1008A0000026009641690091816900910099218D8F
:1008B000002900F0958009F10108014651F8142F34
:1008C000120635D4B8F1000F16D0B9F1000F00F0C0
:1008D000AF8000BF0868400500F1B280FFF7F0FD6F
:1008E000401B484500F2A9802068014651F8142FAA
:1008F0001206EFD51CE000BF0A68520500F1A08087
:100900000A68120614D40A68520500F199800A6830
:1009100012060DD40A68520500F192800A68120688
:1009200006D40A68520500F18B800A681206E3D5E6
:10093000636A194611F8012B02616162618D013908
:100940006185278D0146A7F1010CA4F828C051F854
:10095000142F52070DD55FEA0C420AD05A78A7F13E
:10096000020C02619A1C6262628D013A6285A4F8EF
:1009700028C00A6852072FD4B8F1000F14D0B9F17B
:10098000000F7BD00868400500F18080FFF798FDDC
:10099000401B484577D82068014651F8142F52076C
:1009A000F0D5B4F828C017E00A6852056ED40A687A
:1009B000520711D40A68520568D40A6852070BD44A
:1009C0000A68520562D40A68520705D40A685205BB
:1009D0005CD40A685207E7D55FEA0C417FF46DAF3B
:1009E000016841F400710160202084F83D0084F822
:1009F0003E6084F83C60304601B0BDE8F08300BF43
:100A0000FFF75EFD202002E0FFF75AFD20200021C5
:100A10002022216384F83D2084F83E10226C0126B8
:100A20001043206484F83C10304601B0BDE8F083E8
:100A30000868400504D4FFF743FD202004E000BF10
:100A40006FF480600860042000212022216384F874
:100A50003D2084F83E10226C1043206484F83C1042
:100A6000206C042825D120680126016841F400711A
:100A70000160304601B0BDE8F08300BF0868400562
:100A800004D4FFF71DFD202004E000BF6FF4806058
:100A90000860042000212022216384F83D2084F88E
:100AA0003E10226C1043206484F83C10206C042813
:100AB000D9D00126304601B0BDE8F08310B586B02C
:100AC00045F200410068C4F200010022884204920D
:100AD00002D006B010BD00BF41F21804C4F20204F7
:100AE000206840F008002060206800F008000190B5
:100AF0000198C0200290122003900320059001F578
:100B0000384002A9FFF7C8FB606840F4001060603D
:100B1000606800F400100190019806B010BD00005C
:100B200040F2000040F2C801C2F20000C2F200012F
:100B300000780A68104408607047000080B542F2EF
:100B40000000C4F20200016841F0100101600320BE
:100B500000F07AF80F2000F005F800F027F80020E8
:100B600080BD000070B540F20006C2F2000640F2FF
:100B700008013278C2F200014FF47A730968B3FBBE
:100B8000F2F20446B1FBF2F1084600F03BFB0F2CF9
:100B90004FF0010508D838B94FF0FF302146002248
:100BA000002500F025F87460284670BD82B041F23F
:100BB0001800C4F202000168022241F00101016044
:100BC000016801F0010101910199416841F08051F2
:100BD0004160406800F08050009000980420C4F20A
:100BE0000100016862F31A61016002B07047000001
:100BF00010B54EF60C5CCEF2000CDCF80030C3F3FE
:100C0000022E8EF00704042C28BF0424BEF1030337
:100C10004FF0FF3E0EFA04F438BF0023A143994081
:100C20000EFA03F39A43114300F00F0200F1604300
:100C30000901043A03F564436244002848BF02F105
:100C40000C03197010BD00004EF60C51CEF20001DD
:100C50000A684FF6FF031A4060F30A2242F08060F0
:100C600040F0FD70086070472DE9F04381B0002826
:100C700000F0858042F20008C4F202080446D8F869
:100C800000000D4600F0070088420CD2D8F80000A2
:100C900020F007002843C8F80000D8F8000000F052
:100CA0000700A8426BD1206841F204098107C4F211
:100CB000020917D5410705D5D9F8001041F4E061C4
:100CC000C9F80010010705D5D9F8001041F46051AA
:100CD000C9F80010D9F80010A26821F0F001114302
:100CE000C9F80010C00741D1D8F8000000F0070093
:100CF000A8420CD9D8F8000020F007002843C8F813
:100D00000000D8F8000000F00700A84237D12068A2
:100D1000410707D5D9F80010E26821F4E0611143DA
:100D2000C9F80010000708D5D9F80000216920F49F
:100D3000605040EAC100C9F80000D9F8002002F074
:100D40000C00082841F20020C0F27A0050D141F294
:100D50007C33C2F38341C0F60003595CD2033BD419
:100D600040F60010C0F23D00484341E060680228B0
:100D70000AD001282AD159F8041C890308D401207B
:100D800001B0BDE8F08300BF59F8041C8901F6D515
:100D9000D9F8001021F003010843C9F80000FFF75B
:100DA0008FFB064641F28837D9F80000616800F0F1
:100DB0000C00B0EB810F97D0FFF782FB801BB8428D
:100DC000F2D9032001B0BDE8F08300BF59F8041C3C
:100DD0008907D4D5DCE700BFD9F8002041F262339F
:100DE000C2F34042C0F600039A5C4843B0FBF2F005
:100DF000D9F8001041F26432C1F30311C0F60002C9
:100E0000515C40F2080220FA01F140F20400C2F203
:100E100000000068C2F200021160FFF7A3FE00208C
:100E200001B0BDE8F083000040F2080041F2040187
:100E3000C2F20000C4F202010068096841F2743293
:100E4000C1F30221C0F60002515CC84070470000A7
:100E50002DE9F04182B0002868D00446007841F2C4
:100E60000006C007C4F2020625D0706800F00C002E
:100E700004281BD0706800F00C00082802D17068AC
:100E8000C00313D46068002800F06881B0F5A02F7B
:100E900000F07C81B0F5803F00F07C81306820F468
:100EA00080303060306820F4802076E13068800344
:100EB00001D56068D0B32078800718D5706810F02D
:100EC0000C0F07D0706800F00C0008286ED1706815
:100ED000C0036BD43068800702D52069012825D172
:100EE0003068616920F0F80040EAC1003060207885
:100EF00000071FD42078400732D4E56995B17068A7
:100F000000F00C00082840F08F80012D0ED0706892
:100F1000216A00F480328A4208D1616A00F47010BC
:100F2000884203D1002002B0BDE8F081012002B068
:100F3000BDE8F081A069002862D00020C4F2422000
:100F40000121C0F88014FFF7BBFA0546706A8007DC
:100F500000F18C80FFF7B4FA401B0228F6D92AE191
:100F6000F06910F0805808D1F06940F08050F061CD
:100F7000F06900F080500090009847F20007C4F23A
:100F800000073868C00529D4386840F4807038609C
:100F9000FFF796FA054600BF3868C0051ED4FFF774
:100FA0008FFA401B6428F7D905E100BF20690028AB
:100FB00040F20000C4F2422000F082800121016072
:100FC000FFF77EFA054600BF306880073FF588AF1F
:100FD000FFF776FA401B0228F6D9ECE0E06800281B
:100FE00000F08080052800F09780012800F09880AC
:100FF000306A20F001003062306A20F0040092E094
:101000000020C4F242200021C0F88014FFF758FAF3
:10101000054600BF706A80077FF56CAFFFF750FA96
:10102000401B0228F6D9C6E00027C4F24227002060
:101030003866FFF745FA022D05460BD1306880016E
:1010400040F1BE80FFF73CFA401B02284FF003003E
:10105000F4D968E7306880017FF564AFFFF730FAB4
:10106000401B02284FF00300F4D95CE740F208006F
:10107000C2F20000006844F6D351C1F26201A0FB45
:101080000101480A019000BF00BF0198411E0028DD
:1010900001913FF42FAF00BF0198411E002801913C
:1010A0003FF428AF00BF0198411E002801913FF492
:1010B00021AF00BF0198411E00280191E4D119E73A
:1010C00000210160FFF7FCF9054600BF306880078A
:1010D0007FF50DAFFFF7F4F9401B02284FF0030036
:1010E000F4D920E7306A20F001003062306A20F045
:1010F00004003062FFF7E4F9054641F2883700BF8B
:10110000306A800720D5FFF7DBF9401BB8424FF06B
:101110000300F5D907E700BF306A40F004003062F1
:10112000306A40F001003062FFF7CAF9054641F22B
:10113000883700BF306A800706D4FFF7C1F9401B2B
:10114000B842F7D937E000BFB8F1000F7FF4D5AE51
:10115000F06920F08050F061CFE600BF306820F4E5
:1011600080303060306820F480203060FFF7A8F9CC
:10117000054600BF306880037FF59DAEFFF7A0F9FC
:10118000401B64284FF00300F4D9CCE6306840F4EB
:1011900080203060306840F480303060FFF790F994
:1011A000054600BF306880033FF585AEFFF788F93C
:1011B000401B6428F6D9032002B0BDE8F08100BFCF
:1011C000206AB0F5803F05D17168A26821F4003132
:1011D000114371607168626A21F47411114308430C
:1011E000706001203866FFF76BF9044630688001B3
:1011F0003FF598AEFFF764F9001B02284FF003009B
:10120000F4D990E6411E0020B0EB116F1CBF012005
:1012100070474EF21002CEF2000251604EF623519A
:10122000CEF20001F0230B7007219060116070472F
:10123000FEE70000FEE70000FEE700007047000048
:1012400070470000FFF76CBC70470000FEE700002D
:1012500090B0FFF773FC06AC201D2421FEF7B4FF0D
:101260000220069001200A9010200B9000252046B5
:101270000D95FFF7EDFD28B1EFF3108072B600BFBA
:10128000FEE700BF0F20CDE9010501A80021CDE94F
:1012900003550595FFF7E8FC20B1EFF3108072B617
:1012A000FEE700BF41F21800C4F20200016840F2FC
:1012B000700841F020010160016845F2004601F02C
:1012C0002001069106990168C2F2000841F004016C
:1012D00001600168C4F2000601F00401069106995C
:1012E0000168002241F008010160006848F2A06135
:1012F00000F0080006900698404640F8046FC0F2DF
:1013000001014FF48043C0E90112C0E90323C0E9A1
:101310000522C0E90722FFF7D9F828B1EFF31080C2
:1013200072B600BFFEE700BF40F20C05642708F16B
:101330000404C2F2000506F534464FF0010900BF6F
:10134000204605212A4603230097FFF77BF9002852
:10135000F6D1304620210122FFF7ACF8C8F8009002
:10136000EEE701020000000000000000010203049B
:101370000607080900000000010203040203040537
:10138000060708090A0B0C0D0E0F1010B013000809
:10139000000000201000000028010008C013000811
:1013A00010000020C00600004401000800000000FA
:1013B00001000000100000000024F40001020300FE
:04000005080000ED02
:00000001FF
